:10000000020B7502044A7F0612058E7D357F17129A
:1000100005837F0A7E007D007C001204FA7F0612B1
:10002000058E7D037F891205837F057E007D007C20
:10003000001204FA7D437FCF1205837F057E007D89
:10004000007C001204FA7D027FCB1205837D0A7FBB
:1000500011120583E4FD7F1E1205837D3F7F191277
:1000600005837D487F1B1205837D1F7F1D1205833D
:100070007F0A7E007D007C001204FA7D047FCD1291
:1000800005837F057E007D007C001204FAE4FD7F7D
:10009000B91205837D4F7FCF1205837DFF7F6F02ED
:1000A0000583750D01E4F50C120485EF7005F50D5F
:1000B00002013BE50C90064293FD7FC1120583E4EB
:1000C000FD7FC31205837D047F081205837F017EB7
:1000D000007D007C001204FAE4FD7F081205837F96
:1000E000017E007D007C001204FAE4F50EE50C753B
:1000F000F00FA424F7F582E43405F583E582250E9C
:10010000F582E43583F583E493FD600E7F051205E7
:1001100083050EE50EC3940F40D3AD0E7FB91205D3
:10012000837DFF7FB21205837D047F37120583052F
:100130000CE50CC3940550030200A8AF0D22E4F5B2
:1001400008C2A87F2B12058E781DA607E4FD7F2923
:10015000120583E4FD7F02120583781DE630E42D4D
:100160007FB212058EEF642170237FBF12058EBF10
:10017000351B7FBA12058E8F08E508D39400400D19
:10018000E508D394045006781C76108004781C7619
:1001900011E4FD7F2B120583E4FD7F1C120583E42F
:1001A000FD7F29120583E4FD7F02120583E4FD7FB4
:1001B0002B120583E4FD7FBA120583E4FD7FBC1298
:1001C00005837D017F08120583E4FD7F0812058306
:1001D000D2A822C2A87D557F351205837D097F1CD8
:1001E0001205837D207FBD1205837D017F081205E6
:1001F000837F017E007D007C001204FAE4FD7F080D
:100200001205837F017E007D007C001204FA120437
:1002100085EF7002FF227D0B7F1C1205837DFF7F1F
:10022000B21205837F017E007D007C001204FA7DFE
:10023000067F371205837F017E007D007C0012045B
:10024000FA7D067F371205837F057E007D007C00E6
:100250001204FA7D107F29120583E4FD7FBD12058B
:1002600083D2A87F0122120006E4FD7FBD12058320
:100270007D487F171205837F0A7E007D007C001277
:1002800004FA7D807F3C1205837D077F3E12058343
:100290007DFF7F381205837D077F3A120583E4FDD9
:1002A0007F401205837D087F42120583E4FD7F4471
:1002B0001205837D087F461205837F017E007D0045
:1002C0007C000204FA8F0AE50A700F751B017BFFA0
:1002D0007A0579A11204D5C2C222E51B64017036E9
:1002E000751B01D2C2E50A24FE601324FE601714B8
:1002F000601C240470297BFF7A0579AA801E7BFF8D
:100300007A0579B780167BFF7A0579CC800E7BFF62
:100310007A0579D780067BFF7A0579E11204D52228
:10032000E4F5097592FFF591C294C295C296C29701
:1003300012051E12053A1204091204AE802C781C14
:10034000E61460FA24F1601824DF60F22431702092
:10035000781C7601120376EF70E4781C763180DE2B
:10036000120599781EEFF61202C5E4781CF680CECD
:10037000E4781CF680C8E4F50AF50BF50A12059E30
:100380007F327E007D007C001204FA1200A2EF7022
:100390000280117F0A7E007D007C001204FA1201A7
:1003A000D3EF70101204097F327E007D007C0012B2
:1003B00004FA8005750B018009050AE50AC3940556
:1003C00040BBAF0B22C2D5E830E70FB2D5E4C39BE8
:1003D000FBE49AFAE499F9E498F8EC30E717B2D51F
:1003E0001203FB120883E4C39BFBE49AFAE499F935
:1003F000E498F8800312088330D50DE4C39FFFE42E
:100400009EFEE49DFDE49CFC22D2B57F057E007D2E
:10041000007C001204FAC2B57F057E007D007C00DE
:100420001204FAD2B57F057E007D007C001204FA2A
:10043000C2A17F057E007D007C001204FAD2A17F5C
:10044000057E007D007C000204FAC0E0C0F0C0839D
:10045000C082C0D075D000C000C001C002C003C0BF
:1004600004C005C006C00712013ED007D006D00563
:10047000D004D003D002D001D000D0D0D082D0831D
:10048000D0F0D0E032E4F510F50F7FB212058EBF48
:10049000210575100180147F0A7E007D007C00120A
:1004A00004FA050FE50FC3940A40DFAF10227598D8
:1004B00050758920AE19AF1AAB07AA06E4F9F8FF08
:1004C0007EE1FDFC1203C51208198F8B8F8DD28E31
:1004D000D2ACD2AF228B0B8A0C890DAB0BAA0CA924
:1004E0000D1208006013050DE50D7002050C14F9DE
:1004F000120800FF12055280E2228F148E138D1213
:100500008C11E4F515F516F517F518781174FF122E
:100510000829EC4D4E4F600512056D80EE22B2C2E7
:10052000120560B2C2120560B2C2120560B2C212F8
:100530000560B2C2120560B2C2227580FFE4F59078
:1005400075A0FF75B0FF75C0FFC2C3D289D2A8D213
:10055000AF22C2ACC2998F993099FDC299D2AC2218
:100560007F117ED07D1BDDFEDEFCDFFA2200007FE6
:10057000057E49DEFEDFFC22011C00011B00021982
:10058000258000908100EFF0908000EDF0229081B6
:1005900000EFF0908000E0FF227FC502058E02028E
:1005A0006673686F752064616F007969206A69619C
:1005B000207368690D0A006A69612073686920798F
:1005C00069206775616E2062690D0A007169616E4C
:1005D000206A696E0D0A00686F75207475690D0ACE
:1005E00000E8AFB7E8AFB4E587BAE4B880E7BAA7E8
:1005F000E58FA3E4BBA4007869616F206A69650098
:100600000000000000006A69612073686900000052
:1006100000000000006775616E206269206A6961F0
:10062000207368697169616E206A696E000000005C
:10063000000000686F7520747569000000000000FC
:0706400000000001020405A7
:10080000BB010689828A83E0225002E722BBFE02F6
:10081000E32289828A83E49322C3E49FFFE49EFE5D
:10082000E49DFDE49CFC227401FF3395E0FEFDFC99
:10083000080808E6CF2FF618E6CE3EF618E6CD3DBE
:10084000F618E6CC3CF62275F008758200EF2FFF13
:10085000EE33FECD33CDCC33CCC58233C5829BED98
:100860009AEC99E58298400CF582EE9BFEED9AFD9C
:10087000EC99FC0FD5F0D6E4CEFBE4CDFAE4CCF94C
:10088000A88222B800C1B90059BA002DEC8BF084BF
:10089000CFCECDFCE5F0CBF97818EF2FFFEE33FE8D
:1008A000ED33FDEC33FCEB33FB10D703994004EB45
:1008B00099FB0FD8E5E4F9FA227818EF2FFFEE3311
:1008C000FEED33FDEC33FCC933C910D7059BE99A23
:1008D0004007EC9BFCE99AF90FD8E0E4C9FAE4CCB4
:1008E000FB2275F010EF2FFFEE33FEED33FDCC331E
:1008F000CCC833C810D7079BEC9AE899400AED9B07
:10090000FDEC9AFCE899F80FD5F0DAE4CDFBE4CCE5
:05091000FAE4C8F92221
:100B7500787FE4F6D8FD75811E020BBC020320E4E4
:100B850093A3F8E493A34003F68001F208DFF48011
:100B950029E493A3F85407240CC8C333C4540F4461
:100BA50020C8834004F456800146F6DFE4800B013B
:100BB50002040810204080900578E47E019360BC13
:100BC500A3FF543F30E509541FFEE493A360010ED3
:100BD500CF54C025E060A840B8E493A3FAE493A3FA
:100BE500F8E493A3C8C582C8CAC583CAF0A3C8C51B
:0C0BF50082C8CAC583CADFE9DEE780BE03
:00000001FF
