:10000000020A6002037A750D01E4F50C1203EEEFAB
:100010007005F50D02009FE50C90053B93FD7FC137
:100020001204CBE4FD7FC31204CB7D047F081204CD
:10003000CB7F017E007D007C00120417E4FD7F0869
:100040001204CB7F017E007D007C00120417E4F5D2
:100050000EE50C75F00FA424F0F582E43404F5836A
:10006000E582250EF582E43583F583E493FD600E89
:100070007F051204CB050EE50EC3940F40D3AD0EE1
:100080007FB91204CB7DFF7FB21204CB7D047F3792
:100090001204CB050CE50CC39405500302000CAF11
:1000A0000D22E4F508C2A87F2B1204D6781BA60700
:1000B000E4FD7F291204CBE4FD7F021204CB781B00
:1000C000E630E42D7FB21204D6EF642170237FBFA7
:1000D0001204D6BF351B7FBA1204D68F08E508D3A9
:1000E0009400400DE508D394045006781A761080E9
:1000F00004781A7611E4FD7F2B1204CBE4FD7F1CFB
:100100001204CBE4FD7F291204CBE4FD7F0212042C
:10011000CBE4FD7F2B1204CBE4FD7FBA1204CBE4C9
:10012000FD7FBC1204CB7D017F081204CBE4FD7F70
:10013000081204CBD2A822C2A87D557F351204CB69
:100140007D097F1C1204CB7D207FBD1204CB7D0175
:100150007F081204CB7F017E007D007C0012041713
:10016000E4FD7F081204CB7F017E007D007C00123D
:1001700004171203EEEF7002FF227D0B7F1C1204A6
:10018000CB7DFF7FB21204CB7F017E007D007C001F
:100190001204177D067F371204CB7F017E007D009D
:1001A0007C001204177D067F371204CB7F057E008A
:1001B0007D007C001204177D107F291204CBE4FD22
:1001C0007FBD1204CBD2A87F01228F0AE50A700FEF
:1001D0007519017BFF7A05794012043BC2C222E502
:1001E0001964017046751901D2C2E50A24FE601433
:1001F00014601B1460242403702CD2977BFF7A05B3
:10020000794A802DC2977BFF7A0579568023D29652
:10021000C2957BFF7A0579678017C296D2957BFFDE
:100220007A057971800BC296C295227BFF7A057997
:100230007A12043B22120800E4FD7FBD1204CB7D3C
:10024000487F171204CB7F0A7E007D007C001204D9
:10025000177D807F3C1204CB7D077F3E1204CB7D4F
:10026000FF7F381204CB7D077F3A1204CBE4FD7F79
:10027000401204CB7D087F421204CBE4FD7F441280
:1002800004CB7D087F461204CB7F017E007D007C7D
:1002900000020417E4F5097592FFF591C294C29526
:1002A000C296C29712048E12047612033912045DAC
:1002B000802C781AE61460FA24F1601824DF60F2CA
:1002C00024317020781A76011202EAEF70E4781A6D
:1002D000763180DE1204E8781CEFF61201CAE47869
:1002E0001AF680CEE4781AF680C8E4F50AF50BF524
:1002F0000A1204ED7F327E007D007C00120417128A
:100300000006EF700280117F0A7E007D007C0012E3
:100310000417120137EF70101203397F327E007D0F
:10032000007C001204178005750B018009050AE5A1
:100330000AC3940540BBAF0B22D2B57F057E007D7A
:10034000007C00120417C2B57F057E007D007C0092
:10035000120417D2B57F057E007D007C00120417C1
:10036000C2A17F057E007D007C00120417D2A17F10
:10037000057E007D007C00020417C0E0C0F0C08351
:10038000C082C0D075D000C000C001C002C003C090
:1003900004C005C006C0071200A2D007D006D005D1
:1003A000D004D003D002D001D000D0D0D082D083EE
:1003B000D0F0D0E032BB010689828A83E02250026D
:1003C000E722BBFE02E32289828A83E4932274013E
:1003D000FF3395E0FEFDFC080808E6CF2FF618E68F
:1003E000CE3EF618E6CD3DF618E6CC3CF622E4F516
:1003F00010F50F7FB21204D6BF21057510018014CD
:100400007F0A7E007D007C00120417050FE50FC3F4
:10041000940A40DFAF10228F148E138D128C11E4DA
:10042000F515F516F517F518781174FF1203D0ECD1
:100430004D4E4F60051204C080EE221203B5601CC1
:10044000B40A097F0D1204A57F0A80041203B5FFC8
:100450001204A5740129F9E43AFA80DF2275985054
:1004600043878053890F438920758DFF758BFFD299
:100470008ED2ACD2AF227580FFE4F59075A0FF75E7
:10048000B0FF75C0FFC2C3D289D2A8D2AF22B2C218
:100490001204B3B2C21204B3B2C21204B3B2C21293
:1004A00004B3B2C222C2ACC2998F993099FDC299ED
:1004B000D2AC227F117ED07D1BDDFEDEFCDFFA2276
:1004C00000007F057E49DEFEDFFC22908100EFF018
:1004D000908000EDF022908100EFF0908000E0FF2E
:1004E00022011A00011900007FC50204D60202355C
:1004F0007869616F20796900000000000000006ADF
:1005000069612073686900000000000000006775E1
:10051000616E206269206A6961207368697169612E
:100520006E206A696E00000000000000686F752090
:10053000747569000000000000000000010203045F
:1005400073686F752064616F0A007969206A696158
:10055000207368690A006775616E206269206A69A4
:1005600061207368690A007169616E206A696E0AA8
:1005700000686F75207475690A00506C6561736559
:0E0580002073617920636F6D6D616E640A00F7
:100800007F061204D67D357F171204CB7F0A7E0047
:100810007D007C001204177F061204D67D037F89B9
:100820001204CB7F057E007D007C001204177D43FF
:100830007FCF1204CB7F057E007D007C0012041761
:100840007D027FCB1204CB7D0A7F111204CBE4FD25
:100850007F1E1204CB7D3F7F191204CB7D487F1B86
:100860001204CB7D1F7F1D1204CB7F0A7E007D000A
:100870007C001204177D047FCD1204CB7F057E001F
:100880007D007C00120417E4FD7FB91204CB7D4F7C
:0C0890007FCF1204CB7DFF7F6F0204CBF2
:100A6000787FE4F6D8FD75811C020AA7020294E49F
:100A700093A3F8E493A34003F68001F208DFF48027
:100A800029E493A3F85407240CC8C333C4540F4477
:100A900020C8834004F456800146F6DFE4800B0151
:100AA000020408102040809004E1E47E019360BCC1
:100AB000A3FF543F30E509541FFEE493A360010EE9
:100AC000CF54C025E060A840B8E493A3FAE493A310
:100AD000F8E493A3C8C582C8CAC583CAF0A3C8C531
:0C0AE00082C8CAC583CADFE9DEE780BE19
:00000001FF
